{
  "contractName": "LicenseAndCert",
  "abi": [
    {
      "constant": true,
      "inputs": [],
      "name": "licenseAndCertCount",
      "outputs": [
        {
          "name": "",
          "type": "uint256"
        }
      ],
      "payable": false,
      "stateMutability": "view",
      "type": "function"
    },
    {
      "constant": true,
      "inputs": [
        {
          "name": "",
          "type": "uint256"
        }
      ],
      "name": "licenses",
      "outputs": [
        {
          "name": "id",
          "type": "uint256"
        },
        {
          "name": "professionalRole",
          "type": "string"
        },
        {
          "name": "state",
          "type": "string"
        },
        {
          "name": "licenseName",
          "type": "string"
        },
        {
          "name": "totalHoursRequired",
          "type": "uint256"
        },
        {
          "name": "totalOnlineHoursAccepted",
          "type": "uint256"
        },
        {
          "name": "renewalPeriod",
          "type": "uint256"
        },
        {
          "name": "reminder",
          "type": "uint256"
        },
        {
          "name": "professionalNumber",
          "type": "string"
        },
        {
          "name": "nextRenewalDate",
          "type": "uint256"
        },
        {
          "name": "deleted",
          "type": "bool"
        }
      ],
      "payable": false,
      "stateMutability": "view",
      "type": "function"
    },
    {
      "inputs": [],
      "payable": false,
      "stateMutability": "nonpayable",
      "type": "constructor"
    },
    {
      "anonymous": false,
      "inputs": [
        {
          "indexed": false,
          "name": "id",
          "type": "uint256"
        },
        {
          "indexed": false,
          "name": "professionalRole",
          "type": "string"
        },
        {
          "indexed": false,
          "name": "state",
          "type": "string"
        },
        {
          "indexed": false,
          "name": "licenseName",
          "type": "string"
        },
        {
          "indexed": false,
          "name": "totalHoursRequired",
          "type": "uint256"
        },
        {
          "indexed": false,
          "name": "totalOnlineHoursAccepted",
          "type": "uint256"
        },
        {
          "indexed": false,
          "name": "renewalPeriod",
          "type": "uint256"
        },
        {
          "indexed": false,
          "name": "reminder",
          "type": "uint256"
        },
        {
          "indexed": false,
          "name": "professionalNumber",
          "type": "string"
        },
        {
          "indexed": false,
          "name": "nextRenewalDate",
          "type": "uint256"
        }
      ],
      "name": "LicenseCreated",
      "type": "event"
    },
    {
      "anonymous": false,
      "inputs": [
        {
          "indexed": false,
          "name": "id",
          "type": "uint256"
        }
      ],
      "name": "LicenseRemoved",
      "type": "event"
    },
    {
      "anonymous": false,
      "inputs": [
        {
          "indexed": false,
          "name": "id",
          "type": "uint256"
        },
        {
          "indexed": false,
          "name": "professionalRole",
          "type": "string"
        },
        {
          "indexed": false,
          "name": "state",
          "type": "string"
        },
        {
          "indexed": false,
          "name": "licenseName",
          "type": "string"
        },
        {
          "indexed": false,
          "name": "totalHoursRequired",
          "type": "uint256"
        },
        {
          "indexed": false,
          "name": "totalOnlineHoursAccepted",
          "type": "uint256"
        },
        {
          "indexed": false,
          "name": "renewalPeriod",
          "type": "uint256"
        },
        {
          "indexed": false,
          "name": "reminder",
          "type": "uint256"
        },
        {
          "indexed": false,
          "name": "professionalNumber",
          "type": "string"
        },
        {
          "indexed": false,
          "name": "nextRenewalDate",
          "type": "uint256"
        },
        {
          "indexed": false,
          "name": "deleted",
          "type": "bool"
        }
      ],
      "name": "LicenseUpdated",
      "type": "event"
    },
    {
      "constant": false,
      "inputs": [
        {
          "name": "_professionalRole",
          "type": "string"
        },
        {
          "name": "_state",
          "type": "string"
        },
        {
          "name": "_licenseName",
          "type": "string"
        },
        {
          "name": "_totalHoursRequired",
          "type": "uint256"
        },
        {
          "name": "_totalOnlineHoursAccepted",
          "type": "uint256"
        },
        {
          "name": "_renewalPeriod",
          "type": "uint256"
        },
        {
          "name": "_reminder",
          "type": "uint256"
        },
        {
          "name": "_professionalNumber",
          "type": "string"
        },
        {
          "name": "_nextRenewalDate",
          "type": "uint256"
        }
      ],
      "name": "addLicense",
      "outputs": [],
      "payable": false,
      "stateMutability": "nonpayable",
      "type": "function"
    },
    {
      "constant": false,
      "inputs": [
        {
          "name": "_id",
          "type": "uint256"
        }
      ],
      "name": "removeLicense",
      "outputs": [],
      "payable": false,
      "stateMutability": "nonpayable",
      "type": "function"
    },
    {
      "constant": false,
      "inputs": [
        {
          "name": "_content",
          "type": "string"
        }
      ],
      "name": "editLicense",
      "outputs": [],
      "payable": false,
      "stateMutability": "nonpayable",
      "type": "function"
    }
  ],
  "bytecode": "0x6080604052600080553480156200001557600080fd5b50620001076040518060400160405280601081526020017f4d79206672697374206c6963656e7365000000000000000000000000000000008152506040518060400160405280600281526020017f4e430000000000000000000000000000000000000000000000000000000000008152506040518060400160405280601081526020017f5468652062657374206c6963656e73650000000000000000000000000000000081525060646055600c60086040518060400160405280600c81526020017f3978383734373833396867310000000000000000000000000000000000000000815250426200010d60201b60201c565b62000507565b600080546001908101808355604080516101608101825282815260208082018f81528284018f9052606083018e9052608083018d905260a083018c905260c083018b905260e083018a90526101008301899052610120830188905261014083018790529386528481529190942084518155915180519293620001989390850192919091019062000462565b5060408201518051620001b691600284019160209091019062000462565b5060608201518051620001d491600384019160209091019062000462565b506080820151600482015560a0820151600582015560c0820151600682015560e0820151600782015561010082015180516200021b91600884019160209091019062000462565b50610120820151816009015561014082015181600a0160006101000a81548160ff0219169083151502179055509050507f85cc41ca2b8f037c7933becd26f2f81630934d290d02a61122118a110ec0ca566000548a8a8a8a8a8a8a8a8a604051808b81526020018060200180602001806020018a81526020018981526020018881526020018781526020018060200186815260200185810385528e818151815260200191508051906020019080838360005b83811015620002e7578181015183820152602001620002cd565b50505050905090810190601f168015620003155780820380516001836020036101000a031916815260200191505b5085810384528d5181528d516020918201918f019080838360005b838110156200034a57818101518382015260200162000330565b50505050905090810190601f168015620003785780820380516001836020036101000a031916815260200191505b5085810383528c5181528c516020918201918e019080838360005b83811015620003ad57818101518382015260200162000393565b50505050905090810190601f168015620003db5780820380516001836020036101000a031916815260200191505b50858103825287518152875160209182019189019080838360005b8381101562000410578181015183820152602001620003f6565b50505050905090810190601f1680156200043e5780820380516001836020036101000a031916815260200191505b509e50505050505050505050505050505060405180910390a1505050505050505050565b828054600181600116156101000203166002900490600052602060002090601f016020900481019282601f10620004a557805160ff1916838001178555620004d5565b82800160010185558215620004d5579182015b82811115620004d5578251825591602001919060010190620004b8565b50620004e3929150620004e7565b5090565b6200050491905b80821115620004e35760008155600101620004ee565b90565b61105c80620005176000396000f3fe608060405234801561001057600080fd5b50600436106100575760003560e01c80632e676c8c1461005c5780633379084514610076578063929680701461027557806399911abe146104c5578063d92575a7146104e2575b600080fd5b610064610586565b60408051918252519081900360200190f35b6100936004803603602081101561008c57600080fd5b503561058c565b604051808c81526020018060200180602001806020018b81526020018a8152602001898152602001888152602001806020018781526020018615151515815260200185810385528f818151815260200191508051906020019080838360005b8381101561010a5781810151838201526020016100f2565b50505050905090810190601f1680156101375780820380516001836020036101000a031916815260200191505b5085810384528e818151815260200191508051906020019080838360005b8381101561016d578181015183820152602001610155565b50505050905090810190601f16801561019a5780820380516001836020036101000a031916815260200191505b5085810383528d5181528d516020918201918f019080838360005b838110156101cd5781810151838201526020016101b5565b50505050905090810190601f1680156101fa5780820380516001836020036101000a031916815260200191505b5085810382528851815288516020918201918a019080838360005b8381101561022d578181015183820152602001610215565b50505050905090810190601f16801561025a5780820380516001836020036101000a031916815260200191505b509f5050505050505050505050505050505060405180910390f35b6104c3600480360361012081101561028c57600080fd5b810190602081018135600160201b8111156102a657600080fd5b8201836020820111156102b857600080fd5b803590602001918460018302840111600160201b831117156102d957600080fd5b91908080601f0160208091040260200160405190810160405280939291908181526020018383808284376000920191909152509295949360208101935035915050600160201b81111561032b57600080fd5b82018360208201111561033d57600080fd5b803590602001918460018302840111600160201b8311171561035e57600080fd5b91908080601f0160208091040260200160405190810160405280939291908181526020018383808284376000920191909152509295949360208101935035915050600160201b8111156103b057600080fd5b8201836020820111156103c257600080fd5b803590602001918460018302840111600160201b831117156103e357600080fd5b91908080601f016020809104026020016040519081016040528093929190818152602001838380828437600092019190915250929584359560208601359560408101359550606081013594509192509060a081019060800135600160201b81111561044d57600080fd5b82018360208201111561045f57600080fd5b803590602001918460018302840111600160201b8311171561048057600080fd5b91908080601f016020809104026020016040519081016040528093929190818152602001838380828437600092019190915250929550509135925061081a915050565b005b6104c3600480360360208110156104db57600080fd5b5035610b5b565b6104c3600480360360208110156104f857600080fd5b810190602081018135600160201b81111561051257600080fd5b82018360208201111561052457600080fd5b803590602001918460018302840111600160201b8311171561054557600080fd5b91908080601f016020809104026020016040519081016040528093929190818152602001838380828437600092019190915250929550610f36945050505050565b60005481565b600160208181526000928352604092839020805481840180548651600296821615610100026000190190911695909504601f810185900485028601850190965285855290949193929091908301828280156106285780601f106105fd57610100808354040283529160200191610628565b820191906000526020600020905b81548152906001019060200180831161060b57829003601f168201915b50505060028085018054604080516020601f60001961010060018716150201909416959095049283018590048502810185019091528181529596959450909250908301828280156106ba5780601f1061068f576101008083540402835291602001916106ba565b820191906000526020600020905b81548152906001019060200180831161069d57829003601f168201915b5050505060038301805460408051602060026001851615610100026000190190941693909304601f810184900484028201840190925281815294959493509083018282801561074a5780601f1061071f5761010080835404028352916020019161074a565b820191906000526020600020905b81548152906001019060200180831161072d57829003601f168201915b505050505090806004015490806005015490806006015490806007015490806008018054600181600116156101000203166002900480601f0160208091040260200160405190810160405280929190818152602001828054600181600116156101000203166002900480156108005780601f106107d557610100808354040283529160200191610800565b820191906000526020600020905b8154815290600101906020018083116107e357829003601f168201915b505050506009830154600a9093015491929160ff1690508b565b600080546001908101808355604080516101608101825282815260208082018f81528284018f9052606083018e9052608083018d905260a083018c905260c083018b905260e083018a905261010083018990526101208301889052610140830187905293865284815291909420845181559151805192936108a393908501929190910190610f39565b50604082015180516108bf916002840191602090910190610f39565b50606082015180516108db916003840191602090910190610f39565b506080820151600482015560a0820151600582015560c0820151600682015560e082015160078201556101008201518051610920916008840191602090910190610f39565b50610120820151816009015561014082015181600a0160006101000a81548160ff0219169083151502179055509050507f85cc41ca2b8f037c7933becd26f2f81630934d290d02a61122118a110ec0ca566000548a8a8a8a8a8a8a8a8a604051808b81526020018060200180602001806020018a81526020018981526020018881526020018781526020018060200186815260200185810385528e818151815260200191508051906020019080838360005b838110156109ea5781810151838201526020016109d2565b50505050905090810190601f168015610a175780820380516001836020036101000a031916815260200191505b5085810384528d5181528d516020918201918f019080838360005b83811015610a4a578181015183820152602001610a32565b50505050905090810190601f168015610a775780820380516001836020036101000a031916815260200191505b5085810383528c5181528c516020918201918e019080838360005b83811015610aaa578181015183820152602001610a92565b50505050905090810190601f168015610ad75780820380516001836020036101000a031916815260200191505b50858103825287518152875160209182019189019080838360005b83811015610b0a578181015183820152602001610af2565b50505050905090810190601f168015610b375780820380516001836020036101000a031916815260200191505b509e50505050505050505050505050505060405180910390a1505050505050505050565b610b63610fb7565b6000828152600160208181526040928390208351610160810185528154815281840180548651600296821615610100026000190190911695909504601f81018590048502860185019096528585529094919385840193909290830182828015610c0d5780601f10610be257610100808354040283529160200191610c0d565b820191906000526020600020905b815481529060010190602001808311610bf057829003601f168201915b5050509183525050600282810180546040805160206001841615610100026000190190931694909404601f81018390048302850183019091528084529381019390830182828015610c9f5780601f10610c7457610100808354040283529160200191610c9f565b820191906000526020600020905b815481529060010190602001808311610c8257829003601f168201915b505050918352505060038201805460408051602060026001851615610100026000190190941693909304601f8101849004840282018401909252818152938201939291830182828015610d335780601f10610d0857610100808354040283529160200191610d33565b820191906000526020600020905b815481529060010190602001808311610d1657829003601f168201915b5050505050815260200160048201548152602001600582015481526020016006820154815260200160078201548152602001600882018054600181600116156101000203166002900480601f016020809104026020016040519081016040528092919081815260200182805460018160011615610100020316600290048015610dfd5780601f10610dd257610100808354040283529160200191610dfd565b820191906000526020600020905b815481529060010190602001808311610de057829003601f168201915b50505091835250506009820154602080830191909152600a9092015460ff161515604091820152600161014084018190526000868152818452919091208351815583830151805194955085949193610e5a93850192910190610f39565b5060408201518051610e76916002840191602090910190610f39565b5060608201518051610e92916003840191602090910190610f39565b506080820151600482015560a0820151600582015560c0820151600682015560e082015160078201556101008201518051610ed7916008840191602090910190610f39565b50610120820151600982015561014090910151600a909101805460ff19169115159190911790556040805183815290517f1864102157b19365f0f3156457190d4da5e350a7dd690ef610e241fcea828512916020908290030190a15050565b50565b828054600181600116156101000203166002900490600052602060002090601f016020900481019282601f10610f7a57805160ff1916838001178555610fa7565b82800160010185558215610fa7579182015b82811115610fa7578251825591602001919060010190610f8c565b50610fb3929150611013565b5090565b604051806101600160405280600081526020016060815260200160608152602001606081526020016000815260200160008152602001600081526020016000815260200160608152602001600081526020016000151581525090565b61102d91905b80821115610fb35760008155600101611019565b9056fea165627a7a723058204931f391ee2169c057f25bdd66d937441d83b7c3c178e27f344bd0524cf9ac8b0029",
  "source": "pragma solidity >=0.4.21 <0.6.0;\n\ncontract LicenseAndCert {\n    uint public licenseAndCertCount = 0;\n\n    struct License {\n        uint id;\n        string professionalRole;\n        string state;\n        string licenseName;\n        uint totalHoursRequired;\n        uint totalOnlineHoursAccepted;\n        uint renewalPeriod;\n        uint reminder;\n        string professionalNumber;\n        uint nextRenewalDate;\n        bool deleted;\n    }\n\n    mapping(uint => License) public licenses;\n\n    event LicenseCreated (\n        uint id,\n        string professionalRole,\n        string state,\n        string licenseName,\n        uint totalHoursRequired,\n        uint totalOnlineHoursAccepted,\n        uint renewalPeriod,\n        uint reminder,\n        string professionalNumber,\n        uint nextRenewalDate\n    );\n\n    event LicenseRemoved (\n        uint id\n    );\n\n    event LicenseUpdated (\n        uint id,\n        string professionalRole,\n        string state,\n        string licenseName,\n        uint totalHoursRequired,\n        uint totalOnlineHoursAccepted,\n        uint renewalPeriod,\n        uint reminder,\n        string professionalNumber,\n        uint nextRenewalDate,\n        bool deleted\n    );\n\n    // Runs once, upon deployment\n    constructor() public {\n        // Seed the starting data here\n        addLicense(\"My frist license\", \"NC\", \"The best license\", 100, 85, 12, 8, \"9x8747839hg1\", now);\n    }\n\n    function addLicense(string memory _professionalRole, string memory _state,\n        string memory _licenseName, uint _totalHoursRequired,\n        uint _totalOnlineHoursAccepted, uint _renewalPeriod,\n        uint _reminder, string memory _professionalNumber, uint _nextRenewalDate) public {\n        // Increase the counter for the next ID number\n        licenseAndCertCount ++;\n\n        // Create the new License w/ the variables passed in\n        licenses[licenseAndCertCount] = License(licenseAndCertCount, _professionalRole, _state, _licenseName,\n            _totalHoursRequired, _totalOnlineHoursAccepted, _renewalPeriod, _reminder, _professionalNumber, _nextRenewalDate, false);\n\n        // Emit the event\n        emit LicenseCreated(licenseAndCertCount, _professionalRole, _state, _licenseName,\n            _totalHoursRequired, _totalOnlineHoursAccepted, _renewalPeriod, _reminder, _professionalNumber, _nextRenewalDate);\n    }\n\n    function removeLicense(uint _id) public {\n        License memory _license = licenses[_id];\n        _license.deleted = true;\n\n        licenses[_id] = _license;\n\n        emit LicenseRemoved(_id);\n    }\n\n    function editLicense(string memory _content) public {\n\n    }\n}\n",
  "sourcePath": "/Users/wcoleman/Projects/Personal/LicensesAndCerts/contracts/LicenseAndCert.sol",
  "compiler": {
    "name": "solc",
    "version": "0.5.8+commit.23d335f2.Emscripten.clang"
  },
  "schemaVersion": "3.0.16",
  "updatedAt": "2019-10-23T18:28:17.741Z",
  "devdoc": {
    "methods": {}
  },
  "userdoc": {
    "methods": {}
  }
}