{
  "contractName": "WalletList",
  "abi": [
    {
      "constant": true,
      "inputs": [],
      "name": "walletCount",
      "outputs": [
        {
          "name": "",
          "type": "uint256"
        }
      ],
      "payable": false,
      "stateMutability": "view",
      "type": "function"
    },
    {
      "constant": true,
      "inputs": [
        {
          "name": "",
          "type": "uint256"
        }
      ],
      "name": "wallet",
      "outputs": [
        {
          "name": "id",
          "type": "uint256"
        },
        {
          "name": "firstName",
          "type": "string"
        },
        {
          "name": "lastName",
          "type": "string"
        },
        {
          "name": "walletAddress",
          "type": "address"
        },
        {
          "name": "deleted",
          "type": "bool"
        }
      ],
      "payable": false,
      "stateMutability": "view",
      "type": "function"
    },
    {
      "inputs": [],
      "payable": false,
      "stateMutability": "nonpayable",
      "type": "constructor"
    },
    {
      "anonymous": false,
      "inputs": [
        {
          "indexed": false,
          "name": "id",
          "type": "uint256"
        },
        {
          "indexed": false,
          "name": "firstName",
          "type": "string"
        },
        {
          "indexed": false,
          "name": "lastName",
          "type": "string"
        },
        {
          "indexed": false,
          "name": "walletAddress",
          "type": "address"
        },
        {
          "indexed": false,
          "name": "deleted",
          "type": "bool"
        }
      ],
      "name": "addWalletToList",
      "type": "event"
    },
    {
      "anonymous": false,
      "inputs": [
        {
          "indexed": false,
          "name": "id",
          "type": "uint256"
        },
        {
          "indexed": false,
          "name": "deleted",
          "type": "bool"
        }
      ],
      "name": "removeWalletFromList",
      "type": "event"
    },
    {
      "constant": false,
      "inputs": [
        {
          "name": "_firstName",
          "type": "string"
        },
        {
          "name": "_lastName",
          "type": "string"
        },
        {
          "name": "_walletAddressToAdd",
          "type": "address"
        }
      ],
      "name": "addWallet",
      "outputs": [],
      "payable": false,
      "stateMutability": "nonpayable",
      "type": "function"
    },
    {
      "constant": false,
      "inputs": [
        {
          "name": "_idToRemove",
          "type": "uint256"
        }
      ],
      "name": "removeWallet",
      "outputs": [],
      "payable": false,
      "stateMutability": "nonpayable",
      "type": "function"
    }
  ],
  "bytecode": "0x6080604052600060015534801561001557600080fd5b506100a56040518060400160405280600a81526020017f66697273746e616d6531000000000000000000000000000000000000000000008152506040518060400160405280600981526020017f6c6173746e616d6531000000000000000000000000000000000000000000000081525073b3848590f10e042c47448d17a44c6bd66762a25c6100aa60201b60201c565b610348565b6001805481018082556040805160a08101825282815260208082018881528284018890526001600160a01b03871660608401526000608084018190529485528482529290932081518155915180519194929361010b938501929101906102ad565b50604082015180516101279160028401916020909101906102ad565b5060608281015160039290920180546080948501516001600160a01b03199091166001600160a01b0394851617600160a01b60ff02191674010000000000000000000000000000000000000000911515919091021790556001546040805182815293861692840192909252600093830184905260a0602080850182815289519286019290925288517f170367513a4b7968c47ff753e77a391d9e3a89af19736dd364ba8f989a25f6e29693958a958a958a959094929390929184019160c085019190890190808383895b838110156102095781810151838201526020016101f1565b50505050905090810190601f1680156102365780820380516001836020036101000a031916815260200191505b50838103825286518152865160209182019188019080838360005b83811015610269578181015183820152602001610251565b50505050905090810190601f1680156102965780820380516001836020036101000a031916815260200191505b5097505050505050505060405180910390a1505050565b828054600181600116156101000203166002900490600052602060002090601f016020900481019282601f106102ee57805160ff191683800117855561031b565b8280016001018555821561031b579182015b8281111561031b578251825591602001919060010190610300565b5061032792915061032b565b5090565b61034591905b808211156103275760008155600101610331565b90565b610916806103576000396000f3fe608060405234801561001057600080fd5b506004361061004c5760003560e01c806329b57c6914610051578063a27813351461006b578063d04731d414610191578063fa2f6aa7146101b0575b600080fd5b6100596102e8565b60408051918252519081900360200190f35b6100886004803603602081101561008157600080fd5b50356102ee565b604051808681526020018060200180602001856001600160a01b03166001600160a01b0316815260200184151515158152602001838103835287818151815260200191508051906020019080838360005b838110156100f15781810151838201526020016100d9565b50505050905090810190601f16801561011e5780820380516001836020036101000a031916815260200191505b50838103825286518152865160209182019188019080838360005b83811015610151578181015183820152602001610139565b50505050905090810190601f16801561017e5780820380516001836020036101000a031916815260200191505b5097505050505050505060405180910390f35b6101ae600480360360208110156101a757600080fd5b5035610440565b005b6101ae600480360360608110156101c657600080fd5b8101906020810181356401000000008111156101e157600080fd5b8201836020820111156101f357600080fd5b8035906020019184600183028401116401000000008311171561021557600080fd5b91908080601f016020809104026020016040519081016040528093929190818152602001838380828437600092019190915250929594936020810193503591505064010000000081111561026857600080fd5b82018360208201111561027a57600080fd5b8035906020019184600183028401116401000000008311171561029c57600080fd5b91908080601f016020809104026020016040519081016040528093929190818152602001838380828437600092019190915250929550505090356001600160a01b031691506106159050565b60015481565b600060208181529181526040908190208054600180830180548551600293821615610100026000190190911692909204601f81018790048702830187019095528482529194929390928301828280156103885780601f1061035d57610100808354040283529160200191610388565b820191906000526020600020905b81548152906001019060200180831161036b57829003601f168201915b50505060028085018054604080516020601f600019610100600187161502019094169590950492830185900485028101850190915281815295969594509092509083018282801561041a5780601f106103ef5761010080835404028352916020019161041a565b820191906000526020600020905b8154815290600101906020018083116103fd57829003601f168201915b505050600390930154919250506001600160a01b0381169060ff600160a01b9091041685565b610448610815565b6000808381526020019081526020016000206040518060a001604052908160008201548152602001600182018054600181600116156101000203166002900480601f0160208091040260200160405190810160405280929190818152602001828054600181600116156101000203166002900480156105085780601f106104dd57610100808354040283529160200191610508565b820191906000526020600020905b8154815290600101906020018083116104eb57829003601f168201915b5050509183525050600282810180546040805160206001841615610100026000190190931694909404601f8101839004830285018301909152808452938101939083018282801561059a5780601f1061056f5761010080835404028352916020019161059a565b820191906000526020600020905b81548152906001019060200180831161057d57829003601f168201915b5050509183525050600391909101546001600160a01b038116602080840191909152600160a01b90910460ff16151560409283015260016080840181905282518681529182015281519293507f1b0f06959c15721e347df12f04158490aafe3c28387d19911037ccda8c651263929081900390910190a15050565b6001805481018082556040805160a08101825282815260208082018881528284018890526001600160a01b0387166060840152600060808401819052948552848252929093208151815591518051919492936106769385019291019061084f565b506040820151805161069291600284019160209091019061084f565b5060608281015160039290920180546080948501516001600160a01b03199091166001600160a01b039485161774ff00000000000000000000000000000000000000001916600160a01b911515919091021790556001546040805182815293861692840192909252600093830184905260a0602080850182815289519286019290925288517f170367513a4b7968c47ff753e77a391d9e3a89af19736dd364ba8f989a25f6e29693958a958a958a959094929390929184019160c085019190890190808383895b83811015610771578181015183820152602001610759565b50505050905090810190601f16801561079e5780820380516001836020036101000a031916815260200191505b50838103825286518152865160209182019188019080838360005b838110156107d15781810151838201526020016107b9565b50505050905090810190601f1680156107fe5780820380516001836020036101000a031916815260200191505b5097505050505050505060405180910390a1505050565b6040518060a0016040528060008152602001606081526020016060815260200160006001600160a01b031681526020016000151581525090565b828054600181600116156101000203166002900490600052602060002090601f016020900481019282601f1061089057805160ff19168380011785556108bd565b828001600101855582156108bd579182015b828111156108bd5782518255916020019190600101906108a2565b506108c99291506108cd565b5090565b6108e791905b808211156108c957600081556001016108d3565b9056fea165627a7a72305820a624b323c91a1ea4eb52664f0937cd52c94423d147d7bdfee0623e95f870936d0029",
  "source": "pragma solidity ^0.5.0;\n\ncontract WalletList {\n\n    constructor() public {\n        addWallet(\"firstname1\", \"lastname1\", 0xb3848590f10e042C47448d17A44c6bD66762A25c);\n    }\n\n    mapping(uint => Wallet) public wallet;\n\n    uint public walletCount = 0;\n\n    struct Wallet {\n        uint id;\n        string firstName;\n        string lastName;\n        address walletAddress;\n        bool deleted;\n    }\n\n    event addWalletToList(\n        uint id,\n        string firstName,\n        string lastName,\n        address walletAddress,\n        bool deleted\n    );\n\n    function addWallet(string memory _firstName, string memory _lastName, address _walletAddressToAdd) public {\n    walletCount++;\n    wallet[walletCount] = Wallet(walletCount, _firstName, _lastName, _walletAddressToAdd, false);\n    emit addWalletToList(walletCount, _firstName, _lastName, _walletAddressToAdd, false);\n    }\n\n    event removeWalletFromList(\n        uint id,\n        bool deleted\n    );\n\n    function removeWallet(uint _idToRemove) public {\n        Wallet memory _walletToBeRemoved = wallet[_idToRemove];\n        _walletToBeRemoved.deleted = true;\n        emit removeWalletFromList(_idToRemove, _walletToBeRemoved.deleted);\n    }\n}",
  "sourcePath": "/Users/wcoleman/Projects/Personal/LicensesAndCerts/contracts/WalletList.sol",
  "compiler": {
    "name": "solc",
    "version": "0.5.8+commit.23d335f2.Emscripten.clang"
  },
  "schemaVersion": "3.0.16",
  "updatedAt": "2019-10-24T16:12:15.852Z",
  "devdoc": {
    "methods": {}
  },
  "userdoc": {
    "methods": {}
  }
}